S0170000436F6E74726F6C5F4C69717569646F732E6F626AF5
S123C0004FC718024504B0946EAA4A6E06480D4BFD6E330B6E2805160445C350CDC1FB1793
S123C020046E000DA60FC718586EC31D141C121C6E001E9A6E00B16E00B26E00B345C35007
S123C040CDC1FB6EFF096E030713066E3808CDC1966E0608CDC1966E0C08CDC1966E0108BD
S123C060CDC196454E20CDC1FB6E8008CDC196450000D6C20E41FF0AB708CDC19BAF01CCA9
S123C080C0726EC008CDC196454E20CDC1FBD6C21F41FF0AB708CDC19BAF01CCC08E6E00B3
S123C0A0B0CDC0A7CCC0A11B04450004CDC1FB1A0445000ACDC1FB81B60CA40F410E0941F5
S123C0C00D2F410B5541077EB6B041011B41020F410303CCC1666E33B3CDC1B2CCC1666E75
S123C0E032B3CDC1B2CCC1666E31B3CDC1B2CCC166B6B041011B41020F410303CCC1666EE2
S123C10036B3CDC1B2CCC1666E35B3CDC1B2CCC1666E34B3CDC1B2CCC166B6B041011E41E7
S123C1200212410306CDC1CFCCC1666E39B3CDC1B2CCC1666E38B3CDC1B2CCC1666E37B3DC
S123C140CDC1B2CCC166B6B041011841020C410306CDC1C1CCC166CCC1666E30B3CDC1B289
S123C160CCC166CCC166CDC1D8141C80B6B041001F4101144102096E00B06E130ACCC1958C
S123C1803CB06E230ACCC1953CB06E310ACCC1953CB06E320A811106CCC19D100612069D18
S123C1A09D9D9D9D9D1306898B450032CDC1FB8A8881A60AB1B12A0181BEB142BBB3B7B165
S123C1C081A619B1B12A044EB2B1814EB1B28145000AB6B152B7B18145000AB6B152AB3053
S123C1E08B6ECE08CDC196B708CDC19B86AB306ECE08CDC196B708CDC19B81AFFF6500001B
S123C20026F98130313233343536373839FF4E4956454C2041435455414C3A203130FF4E0E
S113C2204956454C2046494E414C203A202020FF97
S105FFCCC0B8B7
S105FFFEC0003D
S9030000FC
